:020000040000FA
:0600000070EF03F0120096
:0A0006000100340700007A0000003A
:0400100008000000E4
:0C001400000000000000000000000000E0
:1000200000000000000000000000000012003C0E74
:10003000E66E50EC03F0E5521200F40EE66E50EC62
:1000400003F0E5521200D26A300ED36E0F013A6B04
:10005000946A280EE66E3CEC01F0E552060EE66E60
:100060008FEC02F0E552E66AF2EC01F0E5522D0E5B
:10007000E66E070EE66E42EC02F0E552E552070E20
:10008000E66EF2EC01F0E5523A0EE66E69EC02F033
:10009000E5520A0EE66EF2EC01F0E5523A0EE66E1B
:1000A00069EC02F0E552400EE66EF2EC01F0E5522A
:1000B0001E0EE66E070EE66E42EC02F0E552E552C9
:1000C000080EE66E1AEC02F0E5521B0EE66E69ECC5
:1000D00002F0E5521B0EE66E69EC02F0E552E66AAC
:1000E00069EC02F0E5521F0EE66E69EC02F0E55293
:1000F000110EE66E69EC02F0E552110EE66E69EC47
:1001000002F0E5520E0EE66E69EC02F0E552E66A88
:1001100069EC02F0E5524F0EE66EF2EC01F0E552AA
:1001200081C0E6FF69EC02F0E552050EE66EF2ECE6
:1001300001F0E5520A0E126E0C6E7CC007F07EECE8
:1001400003F00750300FE66E69EC02F0E552060E40
:10015000E66EF2EC01F0E5520A0E126E0C6E7CC0F7
:1001600007F07EEC03F00350300FE66E69EC02F00E
:10017000E552080EE66EF2EC01F0E5520A0E126E40
:100180000C6E7DC007F07EEC03F00750300FE66E7A
:1001900069EC02F0E552090EE66EF2EC01F0E55270
:1001A0000A0E126E0C6E7DC007F07EEC03F0035059
:1001B000300FE66E69EC02F0E5520B0EE66EF2ECE3
:1001C00001F0E5520A0E126E0C6E7EC007F07EEC56
:1001D00003F00750300FE66E69EC02F0E5520C0EAA
:1001E000E66EF2EC01F0E5520A0E126E0C6E7EC065
:1001F00007F07EEC03F00350300FE66E69EC02F07E
:10020000E5520E0EE66EF2EC01F0E55200017F5170
:10021000010B04E01B0EE66E070E03D0180EE66E0F
:10022000070EE66E42EC02F0E552E55200017E292F
:100230007E6F3C0E7E5D03E17E6B7D297D6F3C0E03
:100240007D5D03E17D6B7C297C6F0C0E7C5D06E19E
:100250007D5104E17E5102E17F297F6F0D0E7C5DAF
:1002600006E17D5104E17E5102E1010E7C6FF40E46
:08027000E66E50EC03F058D7D4
:08027800D9CFE6FFE1CFD9FF69
:10028000F00E82169416949C949A94988B9C8B9A58
:100290008B9817EC00F0300EE66E8FEC02F0E55212
:1002A000050EE66E39EC03F0E552300EE66E8FEC8B
:1002B00002F0E552010EE66E39EC03F0E552320E23
:1002C000E66E8FEC02F0E5521EEC03F00009FCE153
:1002D0001EEC03F00009FCE1FE0EDBCFE6FF8FEC25
:1002E00002F0E5521EEC03F00009FCE1080EE66E98
:1002F0008FEC02F0E5521EEC03F00009FCE10F0E5A
:10030000E66E8FEC02F0E5521EEC03F00009FCE112
:10031000010EE66E8FEC02F0E5521EEC03F00009D0
:10032000FCE1040EE66E8FEC02F0E5521EEC03F0E9
:100330000009FCE1800EE66EF2EC01F0E552E552B8
:06034000E7CFD9FF120017
:0A034600060EF66E000EF76E000EB4
:10035000F86E00010900F550756F0900F550766FD1
:1003600003E1756701D03DD00900F550706F0900B9
:10037000F550716F0900F550726F09000900F550D2
:10038000E96E0900F550EA6E090009000900F55010
:10039000736F0900F550746F09000900F6CF77F00C
:1003A000F7CF78F0F8CF79F070C0F6FF71C0F7FFA3
:1003B00072C0F8FF0001735302E1745307E00900B3
:1003C000F550EE6E7307F8E27407F9D777C0F6FFC1
:1003D00078C0F7FF79C0F8FF00017507000E765B63
:0403E000BFD7120071
:0C03E400D9CFE6FFE1CFD9FFF00E941650
:1003F0008216FE0EDB508009E8380F0B0F0B8212BD
:100400008B9C8B9A0AEC00F08B880AEC00F08B989E
:10041000F00E8216FE0EDB500F0B82120AEC00F07B
:100420008B880AEC00F08B980F0E9412E552E7CF00
:04043000D9FF1200DE
:0C043400D9CFE6FFE1CFD9FFF00E9416FF
:100440008216FE0EDB504009E8380F0B0F0B8212AC
:100450008B9C8B9A0AEC00F08B880AEC00F08B984E
:10046000F00E8216FE0EDB500F0B82120AEC00F02B
:100470008B880AEC00F08B980F0E9412E552E7CFB0
:04048000D9FF12008E
:0C048400D9CFE6FFE1CFD9FFFD0EDBCFA2
:10049000F6FFFE0EDBCFF7FF0800F55016E01EEC6E
:1004A00003F00009FCE1FD0EDBCFF6FFFE0EDBCF13
:1004B000F7FF0800F550E66E69EC02F0E552FD0E1C
:1004C000DB2AFE0EE3E3DB2AE1D7E552E7CFD9FFD3
:0204D000120018
:0E04D200D9CFE6FFE1CFD9FFF00E94168216C7
:1004E000FE0EDB380F0B0F0B82128B8A8B9C0AECF3
:1004F00000F08B880AEC00F08B98F00E8216FE0E4E
:10050000DB500F0B82120AEC00F08B880AEC00F033
:0E0510008B980F0E9412E552E7CFD9FF120020
:02051E00D9CF33
:10052000E6FFE1CFD9FFF00E94168216FE0EDB38FF
:100530000F0B0F0B82128B9C8B9A0AEC00F08B88AE
:100540000AEC00F08B98F00E8216FE0EDB500F0BBB
:1005500082120AEC00F08B880AEC00F08B980F0EE8
:0A0560009412E552E7CFD9FF120014
:06056A00D9CFE6FFE1CF4E
:10057000D9FFFD0EDBCFE9FFFE0EDBCFEAFFEF5028
:1005800015E01EEC03F00009FCE1FD0EDBCFE9FFF6
:10059000FE0EDBCFEAFFEF50E66E69EC02F0E552AB
:1005A000FD0EDB2AFE0EE5E3DB2AE3D7E552E7CFBB
:0405B000D9FF12005D
:0C05B400D9CFE6FFE1CFD9FFE6528B8CD7
:1005C0008B8A0AEC00F08B880AEC00F08238F00B82
:1005D000F00BDF6E8B980AEC00F08B880AEC00F0D1
:1005E0000F0E8214DF128B988B9A8B9CDF50E55292
:0805F000E552E7CFD9FF12002C
:0805F800D9CFE6FFE1CFD9FFE6
:10060000E6528B8C8B9A0AEC00F08B880AEC00F097
:100610008238F00BF00BDF6E8B980AEC00F08B88C1
:100620000AEC00F00F0E8214DF128B988B9C7F0E69
:0C063000DF14E552E552E7CFD9FF1200BD
:04063C008B8C8B9A7E
:100640000AEC00F08B880AEC00F082A609D08B98A7
:100650000AEC00F08B880AEC00F08B988B9C010C64
:100660008B980AEC00F08B880AEC00F08B988B9C3E
:02067000000C7C
:0E067200FF0EE350116EEF0E01D0F30EE76E97
:10068000E72E40EF03F00C0E106EE76AE72E46EF00
:1006900003F0102E45EF03F0112E3EEF03F0120091
:1006A000FF0EE350116E480E01D04C0EE76EE72EA0
:1006B000FED7E76AE72EFED7112EF7D7000012000B
:1006C000000EF36E00EE00F0060E01D81200EA6094
:1006D00002D0EE6AFCD7F350E9601200EE6AFCD754
:1006E00015EE00F025EE00F0F86A0F9CA3EC01F087
:0C06F00099EC03F023EC00F0FBD71200A3
:0406FC00036A080E77
:10070000E76ED890073603360C50035C02E3036EA5
:08071000072AE72EF7D71200BB
:08071800504D00414D005365F6
:100720007074203230746820323032340054696D75
:02073000650062
:020732001200B3
:0807340000000B3B380000013E
:020000040030CA
:010001006896
:010002000EEF
:0100030030CC
:01000500B545
:0100060001F8
:00000001FF
