:020000040000FA
:06000000F3EF04F0120012
:0A0006000100180A00007700000056
:0400100002000000EA
:0C001400000000000000000000000000E0
:1000200000000000000000000000000012003C0E74
:10003000E66ED3EC04F0E5521200F40EE66ED3EC5B
:1000400004F0E5521200D26A300ED36E926A0F01AC
:10005000396B946A3A6B010EC26E080EC16EB60E11
:10006000C06EF00E426F3A6B946A280EE66E2FEC6B
:1000700002F0E552060EE66EEEEC03F0E552E66A9B
:1000800051EC03F0E552080EE66E0A0EE66EA1ECA6
:1000900003F0E552E552470EE66E51EC03F0E552EF
:1000A000020EE66E0A0EE66EA1EC03F0E552E55292
:1000B000080EE66E79EC03F0E5521F0EE66EC8EC12
:1000C00003F0E5521F0EE66EC8EC03F0E5521F0E7A
:1000D000E66EC8EC03F0E5521F0EE66EC8EC03F0C6
:1000E000E5521F0EE66EC8EC03F0E5521F0EE66EF9
:1000F000C8EC03F0E5521F0EE66EC8EC03F0E552C3
:100100001F0EE66EC8EC03F0E552A1EC04F0000906
:10011000FCE1C282500EE66ED3EC04F0E552C2B2AE
:10012000FED7C3CF64F0C4CF65F00001666B676B88
:1001300064C060F065C061F066C062F067C063F0E3
:10014000800E0B6E1A0E0C6E060E0D6E0E6A64C0DB
:1001500006F065C007F066C008F067C009F0E5EC7E
:1001600002F002C060F003C061F004C062F005C09C
:1001700063F0400EE66E51EC03F0E55260C010F003
:1001800061C011F062C012F063C013F0A00E0B6EDC
:10019000860E0C6E010E0D6E0E6A60C006F061C018
:1001A00007F062C008F063C009F01DEC03F006C060
:1001B00010F007C011F008C012F009C013F0E80EEB
:1001C0000B6E030E0C6E0D6A0E6A1DEC03F006C07A
:1001D00010F007C011F008C012F009C013F0300E83
:1001E0001026000E1122122213221050E66EC8ECC7
:1001F00003F0E5522E0EE66EC8EC03F0E55260C047
:1002000010F061C011F062C012F063C013F0A00ED4
:100210000B6E860E0C6E010E0D6E0E6A60C006F03F
:1002200061C007F062C008F063C009F01DEC03F084
:1002300006C010F007C011F008C012F009C013F09A
:10024000E80E0B6E030E0C6E0D6A0E6A1DEC03F0C9
:1002500002C010F003C011F004C012F005C013F08A
:10026000640E0B6E0C6A0D6A0E6A02C006F003C0C3
:1002700007F004C008F005C009F01DEC03F006C04B
:1002800010F007C011F008C012F009C013F0300ED2
:100290001026000E1122122213221050E66EC8EC16
:1002A00003F0E55260C010F061C011F062C012F0BE
:1002B00063C013F0A00E0B6E860E0C6E010E0D6E59
:1002C0000E6A60C006F061C007F062C008F063C04B
:1002D00009F01DEC03F006C010F007C011F008C0D3
:1002E00012F009C013F0640E0B6E0C6A0D6A0E6AF0
:1002F0001DEC03F002C010F003C011F004C012F0B6
:1003000005C013F00A0E0B6E0C6A0D6A0E6A02C06D
:1003100006F003C007F004C008F005C009F01DECAA
:1003200003F006C010F007C011F008C012F009C0B9
:1003300013F0300E1026000E11221222132210503C
:10034000E66EC8EC03F0E55260C010F061C011F039
:1003500062C012F063C013F0A00E0B6E860E0C6E1E
:10036000010E0D6E0E6A60C006F061C007F062C03B
:1003700008F063C009F01DEC03F006C010F007C0E0
:1003800011F008C012F009C013F00A0E0B6E0C6ACF
:100390000D6A0E6A1DEC03F002C010F003C011F0EC
:1003A00004C012F005C013F0300E1026000E11220A
:1003B000122213221050E66EC8EC03F0E55260C022
:1003C00006F061C007F062C008F063C009F0A00E3B
:1003D0000B6E860E0C6E010E0D6E0E6A1DEC03F098
:1003E000E80E0B6E030E0C6E0D6A0E6A1DEC03F028
:1003F00006C06CF00B0EE66E51EC03F0E552000106
:10040000776B040EE76E7719E8AE02D0E73402D0BE
:10041000E750775D08E2200EE66EC8EC03F0E55287
:100420000001772BEED70B0EE66E51EC03F0E55290
:100430000001776B00016C510001E76E7719E8AE9F
:1004400002D0E73402D0E750775D01E35ED678C092
:0E045000E6FFC8EC03F0E5520001772BEBD776
:02045E00D9CFF4
:10046000E6FFE1CFD9FFF00E82169416949C949A81
:1004700094988B9C8B9A8B9817EC00F0300EE66E5C
:10048000EEEC03F0E552050EE66EBCEC04F0E5522E
:10049000300EE66EEEEC03F0E552010EE66EBCECBB
:1004A00004F0E552320EE66EEEEC03F0E552A1ECFC
:1004B00004F00009FCE1A1EC04F00009FCE1FE0EEF
:1004C000DBCFE6FFEEEC03F0E552A1EC04F000090F
:1004D000FCE1080EE66EEEEC03F0E552A1EC04F050
:1004E0000009FCE10F0EE66EEEEC03F0E552A1EC24
:1004F00004F00009FCE1010EE66EEEEC03F0E552BB
:10050000A1EC04F00009FCE1040EE66EEEEC03F051
:10051000E552A1EC04F00009FCE1800EE66E51EC1E
:0C05200003F0E552E552E7CFD9FF1200CE
:04052C00060EF66E53
:10053000000EF76E000EF86E00010900F550726FA4
:100540000900F550736F03E1726701D03DD00900D7
:10055000F5506D6F0900F5506E6F0900F5506F6F23
:1005600009000900F550E96E0900F550EA6E09002E
:1005700009000900F550706F0900F550716F09000E
:100580000900F6CF74F0F7CF75F0F8CF76F06DC0B4
:10059000F6FF6EC0F7FF6FC0F8FF0001705302E175
:1005A000715307E00900F550EE6E7007F8E271072D
:1005B000F9D774C0F6FF75C0F7FF76C0F8FF0001E9
:0A05C0007207000E735BBFD7120034
:0605CA0006500B02F3CF06
:1005D00002F0F4CF03F00C02F3500326000EF420D7
:1005E000046E06500D02F3500426000EF420056E32
:1005F00006500E02F350052607500B02F350032657
:10060000F4500422000E052207500C02F350042679
:10061000F450052207500D02F350052608500B0236
:10062000F3500426F450052208500C02F35005261E
:0A06300009500B02F35005261200DA
:06063A00006AE86A0EAE42
:100640002AEF03F00B6C0C1E0D1E0E1E0C220D2249
:100650000E22001E09AE35EF03F0066C071E081EC1
:10066000091E072208220922001E39EC04F009BEE7
:100670004CEF03F000AE000C066C071E081E091EAE
:10068000E86A072208220922026C031E041E051EC6
:10069000032204220522000C00BE3CEF03F0018877
:0206A000FF0C4D
:0E06A200D9CFE6FFE1CFD9FFF00E94168216F5
:1006B000FE0EDB508009E8380F0B0F0B82128B9C6B
:1006C0008B9A0AEC00F08B880AEC00F08B98F00E05
:1006D0008216FE0EDB500F0B82120AEC00F08B88A4
:1006E0000AEC00F08B980F0E9412E552E7CFD9FF79
:0206F0001200F6
:0E06F200D9CFE6FFE1CFD9FFF00E94168216A5
:10070000FE0EDB504009E8380F0B0F0B82128B9C5A
:100710008B9A0AEC00F08B880AEC00F08B98F00EB4
:100720008216FE0EDB500F0B82120AEC00F08B8853
:100730000AEC00F08B980F0E9412E552E7CFD9FF28
:020740001200A5
:0E074200D9CFE6FFE1CFD9FFFD0EDBCFF6FFEA
:10075000FE0EDBCFF7FF0800F55016E0A1EC04F029
:100760000009FCE1FD0EDBCFF6FFFE0EDBCFF7FF4D
:100770000800F550E66EC8EC03F0E552FD0EDB2AEA
:10078000FE0EE3E3DB2AE1D7E552E7CFD9FF120003
:10079000D9CFE6FFE1CFD9FFF00E94168216FE0EF8
:1007A000DB380F0B0F0B82128B8A8B9C0AEC00F04C
:1007B0008B880AEC00F08B98F00E8216FE0EDB5050
:1007C0000F0B82120AEC00F08B880AEC00F08B9879
:0C07D0000F0E9412E552E7CFD9FF120083
:0407DC00D9CFE6FF8C
:1007E000E1CFD9FFF00E94168216FE0EDB380F0B08
:1007F0000F0B82128B9C8B9A0AEC00F08B880AEC10
:1008000000F08B98F00E8216FE0EDB500F0B82125A
:100810000AEC00F08B880AEC00F08B980F0E941213
:08082000E552E7CFD9FF1200F9
:08082800D9CFE6FFE1CFD9FFB3
:10083000FD0EDBCFE9FFFE0EDBCFEAFFEF5015E048
:10084000A1EC04F00009FCE1FD0EDBCFE9FFFE0E98
:10085000DBCFEAFFEF50E66EC8EC03F0E552FD0E89
:10086000DB2AFE0EE5E3DB2AE3D7E552E7CFD9FF2B
:02087000120074
:0E087200056A046A036A026A200EE76ED890D7
:10088000063607360836093602360336043605368C
:100890000B50025C0C5003580D5004580E50055874
:1008A00009E30B50025E0C50035A0D50045A0E50CF
:0A08B000055A062AE72EE4D71200CD
:0608BA00D9CFE6FFE1CFFB
:1008C000D9FFE6528B8C8B8A0AEC00F08B880AECFD
:1008D00000F08238F00BF00BDF6E8B980AEC00F022
:1008E0008B880AEC00F00F0E8214DF128B988B9A23
:0E08F0008B9CDF50E552E552E7CFD9FF120096
:0208FE00D9CF50
:10090000E6FFE1CFD9FFE6528B8C8B9A0AEC00F020
:100910008B880AEC00F08238F00BF00BDF6E8B98BE
:100920000AEC00F08B880AEC00F00F0E8214DF1244
:100930008B988B9C7F0EDF14E552E552E7CFD9FFF1
:020940001200A3
:0E0942008B8C8B9A0AEC00F08B880AEC00F08C
:1009500082A609D08B980AEC00F08B880AEC00F094
:100960008B988B9C010C8B980AEC00F08B880AEC1E
:0809700000F08B988B9C000C39
:08097800FF0EE350156EEF0EB7
:1009800001D0F30EE76EE72EC3EF04F00C0E146EE9
:10099000E76AE72EC9EF04F0142EC8EF04F0152E15
:0609A000C1EF04F012009B
:0A09A600FF0EE350156E480E01D05D
:1009B0004C0EE76EE72EFED7E76AE72EFED7152E20
:0609C000F7D70000120051
:0A09C600000EF36E00EE00F0060EC6
:1009D00001D81200EA6002D0EE6AFCD7F350E96059
:0609E0001200EE6AFCD7D4
:0A09E60015EE00F025EE00F0F86AAF
:1009F000019C96EC02F00BEC05F023EC00F0FBD729
:020A00001200E2
:0E0A0200566F6C747300566F6C7461676520DC
:050A100069733A2000AB
:020A16001200CC
:020A18000001DB
:020000040030CA
:010001006896
:010002000EEF
:0100030030CC
:01000500B545
:0100060001F8
:00000001FF
