:020000040000FA
:06000000DAEF00F012002F
:0A0006000100D20100006D000000AF
:0400100002000000EA
:0C001400F19E3F0E616E93680F01396B86
:10002000946A3A6B956A3B6B0001010E6B6F300E60
:100030008114E8380F0B00016A6FE850030AF7E0FB
:10004000010A21E0030A15E0010A03E0490E836E6C
:10005000EED7FF0E00016E5D0AE26E296E6F836EB1
:10006000826E020EE66EB3EC00F0E552F2D76E6BD4
:10007000DED782688368050EE66EB3EC00F0E552C9
:100080007F0E836E1BD0800E6B5D03E100016D6BF4
:1000900005D06B0503E10001010E6D6F00016D05D8
:1000A00004E100016B51E82405D06D5104E1000129
:1000B0006B417F0B6B6F6BC082FF836A050EE66E30
:0800C000B3EC00F0E552B3D7E8
:0800C800060EF66E000EF76E45
:1000D000000EF86E00010900F550656F0900F5503B
:1000E000666F03E1656701D03DD00900F550606F90
:1000F0000900F550616F0900F550626F09000900B1
:10010000F550E96E0900F550EA6E09000900090092
:10011000F550636F0900F550646F09000900F6CFD0
:1001200067F0F7CF68F0F8CF69F060C0F6FF61C004
:10013000F7FF62C0F8FF0001635302E1645307E078
:100140000900F550EE6E6307F8E26407F9D767C05F
:10015000F6FF68C0F7FF69C0F8FF00016507000EF1
:06016000665BBFD7120030
:0A016600FF0EE350036EEF0E01D010
:10017000F30EE76EE72EBAEF00F00C0E026EE76AA0
:10018000E72EC0EF00F0022EBFEF00F0032EB8EF15
:0401900000F0120069
:0C019400000EF36E00EE00F0060E01D825
:1001A0001200EA6002D0EE6AFCD7F350E960120058
:0401B000EE6AFCD720
:0C01B40015EE00F025EE00F0F86A019C4A
:1001C00064EC00F0E8EC00F00AEC00F0FBD7120061
:0201D00012001B
:0201D20000002B
:020000040030CA
:010001006896
:010002000FEE
:0100030030CC
:01000500B545
:0100060001F8
:00000001FF
