:020000040000FA
:0600000024EF04F01200E1
:020006000000F8
:080008000000000000000000F0
:1000100000000000000000000000000000000000E0
:1000200012003C0EE66E04EC04F0E5521200F40EF1
:10003000E66E04EC04F0E5521200D26A300ED36E84
:100040000F013A6B946A010EC26E080EC16EB60EB5
:10005000C06E396BF00E426F100E926E386B880EC8
:10006000D56E280EE66ECCEC01F0E552060EE66E7B
:100070001FEC03F0E552E66A82EC02F0E552670EEF
:10008000E66E080EE66ED2EC02F0E552E552460E40
:10009000E66E82EC02F0E552640EE66E080EE66E45
:1000A000D2EC02F0E552E55280B8FED780A8FED728
:1000B000D76AD66A80B8FED780A8FED7D6CF68F0B8
:1000C0000001696B6A6B6B6BD7CF6CF06D6B6E6BFD
:1000D0006F6B080E1F0B6CC010F06DC011F06EC07E
:1000E00012F06FC013F007E0D890103611361236B8
:1000F0001336E806F9E1680EE96E000EEA6E10505C
:10010000EE240001646F1150EE20656F1250EE2056
:10011000666F1350EE20676F900E106ED00E116E4A
:10012000030E126E136A10C004F011C005F0066EC3
:1001300013C007F064C009F065C00AF066C00BF098
:1001400067C00CF06AEC03F004C060F005C061F019
:1001500006C062F007C063F0400EE66E82EC02F06B
:10016000E55260C010F061C011F062C012F063C0CF
:1001700013F0100E096E270E0A6E0B6A0C6A60C02F
:1001800004F061C005F062C006F063C007F06AECDD
:1001900003F004C010F005C011F006C012F007C053
:1001A00013F0300E1026000E1122122213221050CE
:1001B000E66EF9EC02F0E55260C010F061C011F09B
:1001C00062C012F063C013F0100E096E270E0A6EA3
:1001D0000B6A0C6A60C004F061C005F062C006F0F2
:1001E00063C007F06AEC03F000C010F001C011F02A
:1001F00002C012F003C013F0E80E096E030E0A6E7F
:100200000B6A0C6A00C004F001C005F002C006F0E1
:1002100003C007F06AEC03F004C010F005C011F051
:1002200006C012F007C013F0300E1026000E112287
:10023000122213221050E66EF9EC02F0E55260C073
:1002400010F061C011F062C012F063C013F0E80E4C
:10025000096E030E0A6E0B6A0C6A60C004F061C07E
:1002600005F062C006F063C007F06AEC03F000C05E
:1002700010F001C011F002C012F003C013F0640EC0
:10028000096E0A6A0B6A0C6A00C004F001C005F02E
:1002900002C006F003C007F06AEC03F004C010F0DF
:1002A00005C011F006C012F007C013F0300E102682
:1002B000000E1122122213221050E66EF9EC02F009
:1002C000E55260C010F061C011F062C012F063C06E
:1002D00013F0640E096E0A6A0B6A0C6A60C004F0BF
:1002E00061C005F062C006F063C007F06AEC03F07D
:1002F00000C010F001C011F002C012F003C013F0F2
:100300000A0E096E0A6A0B6A0C6A00C004F001C08A
:1003100005F002C006F003C007F06AEC03F004C069
:1003200010F005C011F006C012F007C013F0300E37
:100330001026000E1122122213221050E66EF9EC44
:1003400002F0E55260C010F061C011F062C012F01E
:1003500063C013F00A0E096E0A6A0B6A0C6A60C069
:1003600004F061C005F062C006F063C007F06AECFB
:1003700003F000C010F001C011F002C012F003C081
:1003800013F0300E1026000E1122122213221050EC
:08039000E66EF9EC02F087D6DD
:08039800D9CFE6FFE1CFD9FF48
:1003A000F00E82169416949C949A94988B9C8B9A37
:1003B0008B9811EC00F0300EE66E1FEC03F0E55266
:1003C000050EE66EEDEC03F0E552300EE66E1FEC26
:1003D00003F0E552010EE66EEDEC03F0E552320E4D
:1003E000E66E1FEC03F0E552D2EC03F00009FCE1ED
:1003F000D2EC03F00009FCE1FE0EDBCFE6FF1FECC0
:1004000003F0E552D2EC03F00009FCE1080EE66EC1
:100410001FEC03F0E552D2EC03F00009FCE10F0EF3
:10042000E66E1FEC03F0E552D2EC03F00009FCE1AC
:10043000010EE66E1FEC03F0E552D2EC03F000096A
:10044000FCE1040EE66E1FEC03F0E552D2EC03F083
:100450000009FCE1800EE66E82EC02F0E552E55206
:06046000E7CFD9FF1200F6
:0A046600060EF66E000EF76E000E93
:10047000F86E00010900F550756F0900F550766FB0
:1004800003E1756701D03DD00900F550706F090098
:10049000F550716F0900F550726F09000900F550B1
:1004A000E96E0900F550EA6E090009000900F550EF
:1004B000736F0900F550746F09000900F6CF77F0EB
:1004C000F7CF78F0F8CF79F070C0F6FF71C0F7FF82
:1004D00072C0F8FF0001735302E1745307E0090092
:1004E000F550EE6E7307F8E27407F9D777C0F6FFA0
:1004F00078C0F7FF79C0F8FF00017507000E765B42
:04050000BFD712004F
:0C050400D9CFE6FFE1CFD9FFF00E94162E
:100510008216FE0EDB508009E8380F0B0F0B82129B
:100520008B9C8B9A04EC00F08B8804EC00F08B9889
:10053000F00E8216FE0EDB500F0B821204EC00F060
:100540008B8804EC00F08B980F0E9412E552E7CFE5
:04055000D9FF1200BD
:0C055400D9CFE6FFE1CFD9FFF00E9416DE
:100560008216FE0EDB504009E8380F0B0F0B82128B
:100570008B9C8B9A04EC00F08B8804EC00F08B9839
:10058000F00E8216FE0EDB500F0B821204EC00F010
:100590008B8804EC00F08B980F0E9412E552E7CF95
:0405A000D9FF12006D
:0C05A400D9CFE6FFE1CFD9FFFD0EDBCF81
:1005B000F6FFFE0EDBCFF7FF0800F55016E0D2EC99
:1005C00003F00009FCE1FD0EDBCFF6FFFE0EDBCFF2
:1005D000F7FF0800F550E66EF9EC02F0E552FD0E6B
:1005E000DB2AFE0EE3E3DB2AE1D7E552E7CFD9FFB2
:0205F0001200F7
:0E05F200D9CFE6FFE1CFD9FFF00E94168216A6
:10060000FE0EDB380F0B0F0B82128B8A8B9C04ECD7
:1006100000F08B8804EC00F08B98F00E8216FE0E32
:10062000DB500F0B821204EC00F08B8804EC00F01E
:0E0630008B980F0E9412E552E7CFD9FF1200FF
:02063E00D9CF12
:10064000E6FFE1CFD9FFF00E94168216FE0EDB38DE
:100650000F0B0F0B82128B9C8B9A04EC00F08B8893
:1006600004EC00F08B98F00E8216FE0EDB500F0BA0
:10067000821204EC00F08B8804EC00F08B980F0ED3
:0A0680009412E552E7CFD9FF1200F3
:06068A00D9CFE6FFE1CF2D
:10069000D9FFFD0EDBCFE9FFFE0EDBCFEAFFEF5007
:1006A00015E0D2EC03F00009FCE1FD0EDBCFE9FF21
:1006B000FE0EDBCFEAFFEF50E66EF9EC02F0E552FA
:1006C000FD0EDB2AFE0EE5E3DB2AE3D7E552E7CF9A
:0406D000D9FF12003C
:0C06D400036A026A016A006A200EE76EE9
:1006E000D89004360536063607360036013602360F
:1006F00003360950005C0A5001580B5002580C5048
:10070000035809E30950005E0A50015A0B50025A7F
:0C0710000C50035A042AE72EE4D7120014
:04071C00D9CFE6FF4C
:10072000E1CFD9FFE6528B8C8B8A04EC00F08B88EA
:1007300004EC00F08238F00BF00BDF6E8B9804ECC9
:1007400000F08B8804EC00F00F0E8214DF128B98FF
:100750008B9A8B9CDF50E552E552E7CFD9FF120010
:10076000D9CFE6FFE1CFD9FFE6528B8C8B9A04EC10
:1007700000F08B8804EC00F08238F00BF00BDF6E99
:100780008B9804EC00F08B8804EC00F00F0E8214C0
:10079000DF128B988B9C7F0EDF14E552E552E7CF7A
:0407A000D9FF12006B
:0C07A4008B8C8B9A04EC00F08B8804EC2A
:1007B00000F082A609D08B9804EC00F08B8804EC42
:1007C00000F08B988B9C010C8B9804EC00F08B88CC
:0A07D00004EC00F08B988B9C000CE9
:0607DA00FF0EE350156E56
:1007E000EF0E01D0F30EE76EE72EF4EF03F00C0EE0
:1007F000146EE76AE72EFAEF03F0142EF9EF03F018
:08080000152EF2EF03F01200C7
:08080800FF0EE350156E480ECF
:1008100001D04C0EE76EE72EFED7E76AE72EFED733
:08082000152EF7D700001200AD
:08082800000EF36E00EE00F07B
:10083000060E01D81200EA6002D0EE6AFCD7F3502F
:08084000E9601200EE6AFCD72A
:0808480015EE00F025EE00F0B2
:10085000F86A0F9C33EC02F03AEC04F01DEC00F067
:04086000FBD71200B0
:0C086400487A004672657175656E637914
:040870002069730088
:02087400120070
:020000040030CA
:010001006896
:010002000EEF
:0100030030CC
:01000500B545
:0100060001F8
:00000001FF
